S01400005A33537769746368536F635F352E73333728
S31500000000A01A002061FF0100ADC30000B1C30000CB
S31500000010A70A02020002000004180FAC5065B001E6
S3150000002000000000000000000000000000000000CA
S3150000003000000000F8DB03000000000000000000E4
S315000000400000000000000000FFFFFFFFFFFFFFFFB2
S31500000050FFFFFFFFFFFFFFFFFFFFFFFFFFFFFFFFAA
S3150000006000E00F000000000000001000FFFFFFFF8F
S31500000070FFFFFFFF1C000000000000000000000062
S31500000080886D00208861002088610020886100203A
S31500000090A01A0020C01D0400C474030040110020F3
S311000000A01011002000001000886D0020E8
S31500000200A01A002061FF0100ADC30000B1C30000C9
S31500000210B9C30000B5C30000BDC300005DFF010007
S315000002205DFF01005DFF01005DFF01005DFF010054
S31500000230C1C300005DFF01005DFF01005DFF01001D
S31500000240B5DD0000E5EA0100ADC6000034C40000DB
S31500000250A9E5010051EB0100F1EA010009EB0100FB
S31500000260E9EA0100E9D40000BDD50000D9F3000099
S31500000270415B010034C4000034C400006D9E0000E0
S3150000028034C4000034C40000E1D50000E15E000083
S3150000029034C4000034C4000034C4000034C4000078
S315000002A034C4000034C4000034C4000034C4000068
S315000002B055EB0100EDEA010039DB000095EB01008A
S315000002C034C40000BDA6010034C4000034C40000DC
S315000002D034C4000034C4000034C4000034C4000038
S315000002E034C4000034C4000034C400003D060000DD
S315000002F06106000034C4000034C4000034C40000A9
S3110000030034C4000034C400005DFF01009E
S3150000030CF8B500BFF8BC08BC9E467047F8B500BFF0
S3150000031CF8BC08BC9E46704710B5054C237833B91B
S3150000032C044B13B10448AFF300800123237010BDB6
S3150000033C38230020000000002015040008B5034BEC
S3150000034C1BB103490348AFF3008008BD0000000051
S3150000035C3C23002020150400154B002B08BF134B23
S3150000036C9D46A3F5803A00218B460F461348144A46
S3150000037C121A34F02EFD0F4B002B00D098470E4B63
S3150000038C002B00D098470020002104000D000D48DA
S3150000039C002802D00C48AFF3008034F0B7FC2000E4
S315000003AC290015F067FE34F09DFC00BF0000080024
S315000003BCA01A0020000000000000000038230020D6
S315000003CC8861002000000000000000002DE9F047C5
S315000003DCDFF83C9006460C461F464D1E01F10708F9
S315000003EC15F8012F4946012006F032FB4545F7D199
S315000003FC054B06491E803246089723460120BDE868
S3150000040CF04706F025BB00BF844B0020277A03007B
S3150000041C177A030070B5184C0023237001F07CF991
S3150000042C054601F079F9022813D02A461349012012
S3150000043C06F00EFB0F2114230322012012F04CFDB3
S3150000044C12F0A2FE204641F28831BDE8704027F03A
S3150000045C8FB801F05DF9064601F05EF908490546CC
S3150000046C204627F085F833462A4606490120BDE882
S3150000047C704006F0EDBA00BFBC4D0020917A030027
S3150000048CA0860100CE7A030070B500238CB004223E
S3150000049C0821032010F03AF9012304220921032034
S315000004AC10F034F92C4B4FF480721A604FF4007232
S315000004BC1A602A4B01AA03F11006154618685968EA
S315000004CC144603C40833B3422246F7D12846244DBA
S315000004DC10F046F805F0BCFC0FCD05AC0FC495E842
S315000004EC07004FF4165384E8070001211D480793B3
S315000004FC0FF0CCF801211C481C4C0FF0C7F8012258
S3150000050C10460023072110F001F901231846042296
S3150000051C062110F0FBF805A9204610F0F9FB636FD5
S3150000052C134843F003036367A36F23F4F85323F0D4
S3150000053C1F0343F4206343F00A03A367E36C43F001
S3150000054C0403E3640B4B4FF400625A6042F21071E1
S3150000055C27F00EF80CB070BD9CA00046087703007F
S3150000056C1877030000350A0000720400000C0140E5
S3150000057CBC4D002000E100E02DE9F0410C4606469A
S3150000058C17460D49DFF834800246012006F060FA62
S3150000059C25462B1B9F4208DC304600233A46214653
S315000005AC05F040F90120BDE8F08115F8012B414614
S315000005BC012006F04DFAECE7747903003BCA030000
S315000005CC07B50B46009204490246012006F040FA94
S315000005DC03B05DF804FB00BFE17703002DE9F041A1
S315000005EC0C46064617460D49DFF8348002460120B4
S315000005FC06F02EFA25462B1B9F4208DC30460223BA
S3150000060C3A46214605F00EF90120BDE8F08115F8B1
S3150000061C012B4146012006F01BFAECE7AD790300ED
S3150000062C3BCA03000149012006F012BAEC7903001B
S3150000063C08B5064B06484FF400721A60036C8364C7
S3150000064C10F09EFBBDE8084005F052BC9CA000448F
S3150000065C000C0140014B1A6C9A647047000C014067
S3150000066C10B5174A137801331370164B00221A7003
S3150000067C01F052F8022816D1134B1B78062B0AD11F
S3150000068C124C208805F060FA228811490120BDE839
S3150000069C104006F0DDB90F49012006F0D9F9BDE886
S315000006AC104012F071BD12F06FFD0B49012006F0DF
S315000006BCCFF90A4826F050FF094B01221A7010BDDB
S315000006CC55230020FC4D002056230020844B00208F
S315000006DC3477030052770300FB7D0300044E0020A1
S315000006EC5423002010B50B4C002323700A4B1B78A7
S315000006FC53B101F011F802280AD020464FF47A6162
S3150000070CBDE8104026F034BFBDE8104001F004B837
S3150000071C10BD00BF044E00205423002010B5074B1B
S3150000072C002201201A7010F0EBFD054A054903461C
S3150000073CBDE81040012006F08BB900BF884B0020A5
S3150000074C629B0300707A0300912808B504D100203F
S3150000075C0BF09AFE002008BD9028FBD100200BF070
S3150000076C81FEF7E721B9034B1870034826F0F4BE57
S3150000077C704700BF56230020FC4D002013B50B4BD1
S3150000078C009004460A4A0B49012006F061F924B18F
S3150000079C094B00221A7002B010BD084840F6B83159
S315000007AC02B0BDE8104026F0E3BE00BFDAE303005A
S315000007BC247903002979030054230020884B002058
S315000007CC07B500230093074A074B0849012006F09A
S315000007DC3FF9074840F6B83103B05DF804EB26F054
S315000007ECC7BE00BF6A790300DAE303002979030068
S315000007FC884B002007B501200090054B054A064999
S3150000080C06F026F9054B00221A7003B05DF804FBBE
S3150000081CDAE303006A7903002979030054230020E4
S3150000082C08B5054A05490346012006F011F9044BA3
S3150000083C00221A7008BD00BFDAE30300707A0300C9
S3150000084C5423002070B592B004462DF013FA2F4BAA
S3150000085C18802DF00FFA94F8EE30009322460346DA
S3150000086C2B49012006F0F4F894F8621094F8343011
S3150000087C22890191E18E00910120264906F0E8F8C3
S3150000088C2DF0F8F92222089000210DF1260007918F
S3150000089C34F09FFA07AB93E8030004F007FC34F03E
S315000008AC93FB0D901C4834F08FFB0F901B4834F0D3
S315000008BC8BFB03230A908DF82430204694F8EE30F7
S315000008CC8DF8253004F0B6FC0B90154804F0EBFCC3
S315000008DC0DAD0C900FCD6C460FC42B68236009AC84
S315000008EC94E80F0004F02EFD05460DAE05F01CFC39
S315000008FC284634F049FA0FCE6D460FC533682B6087
S3150000090C94E80F0004F062FD12B070BD844B002019
S3150000091C37780300A9780300E4780300EF78030026
S3150000092C404D002008B50349012006F091F801203E
S3150000093C08BD00BFFA7803000149012006F088B80B
S3150000094C647703000149012006F082B89E77030004
S3150000095C0149012006F07CB83D79030008B5022058
S3150000096C04F024FF044B00221A70022011F046FCFE
S3150000097CBDE8084004F009BF1C4E002008B5002055
S3150000098C04F0FCFE044B00221A7014F085FCBDE842
S3150000099C084004F0FABE00BF144E002008B5012032
S315000009AC04F004FF044B00221A70012011F026FCFF
S315000009BCBDE8084004F0E9BE244E002008B501202D
S315000009CC04F0F4FE044B00221A70012013F03AFCDA
S315000009DCBDE8084004F0D9BE0C4E002008B5012035
S315000009EC26F0E6FE024826F059FE024B187008BDAA
S315000009FCFC7A03002C4E002008B504F0B5F901284A
S31500000A0C05D0034B1878BDE8084026F02BBE08BD70
S31500000A1C2C4E002010B50C1E03D126F09DFD002097
S31500000A2C10BD02DB26F0A4FDF9E70220F8E7B1F5CC
S31500000A3C000F02D20902FFF7EDBF0220704700003B
S31500000A4C2DE9F0419846154B154F1B8800264FF0A3
S31500000A5C0C0CF4B29C4202D30220BDE8F0810CFBD4
S31500000A6C04F57C197D5D854205D165888D4202D1E0
S31500000A7C2579954201D00136EBE701F089FB002878
S31500000A8CEAD04146A068FFF7C5FF0028E4D19DF8DF
S31500000A9C183063719DF81C30A371DEE7CC1A002068
S31500000AACA81A002013B59DF81040CDE90034134662
S31500000ABC0022FFF7C5FF02B010BD07B50023009357
S31500000ACCFFF7F0FF03B05DF804FB00000E4BF0B52A
S31500000ADC1F880E4E00254FF00C0CEBB2BB4201D317
S31500000AEC0220F0BD0CFB03F3F418F35C834205D132
S31500000AFC63888B4202D12379934201D00135ECE70E
S31500000B0CA36800201870ECE7CC1A0020A81A002065
S31500000B1C0022FFF7DBBF00002DE9F04F1D4699B010
S31500000B2CFF23022D074688461446229E9DF88CA06C
S31500000B3C8DF81A3040F2D38033785A072DD5042D10
S31500000B4C40F2CD8096F804B0694A002302EBC3014B
S31500000B5C5FFA83F90979FF2908D001330A2BF5D1FD
S31500000B6C269B002B40F0BF804FF0FF0900230CAAF8
S31500000B7C0DF11B0120798DF81B3002F0A0FF78B126
S31500000B8CBDF8583023809DF81B0004F0F7FD8DF856
S31500000B9C1900C8B119B0BDE8F08F96F802B0D3E7CA
S31500000BAC207901F011FBFF28059000F09A8020793E
S31500000BBC04F0FCFD8DF819000028EBD1059B4D487F
S31500000BCC00EB031043882380618823884FF6FF725D
S31500000BDC002F08BF4246CDE9001258465246002166
S31500000BEC07F06AFB18B1E38843F02003E380269BE9
S31500000BFC09960DF1190107A8CDE90734ADF828803F
S31500000C0CADF82A508DF82C708DF82DA002F090FFBF
S31500000C1C10B19DF81900BDE7304607F06BFAA01D20
S31500000C2C07F056FA22464146384607F067FC80B272
S31500000C3CA8422ED39DF894300393BDF890300293BE
S31500000C4C0DF11A03CDE900632246EBB24146384654
S31500000C5C00F0F6FE8DF81900269A9DF8193092B31D
S31500000C6C002B42D19DF81A20FF2A09D0B9F1090FA1
S31500000C7C06D81F4B03EBC9010A71269A43F8392093
S31500000C8C9DF8193013B9112002F0F3FE04F07DFD26
S31500000C9CBFE7BAF1000F12D10DF11A03CDE90053DB
S31500000CAC224633464146384610F094FF2B468DF8C3
S31500000CBC1900114A1149022005F0CAFECCE774232B
S31500000CCC8DF81930C8E7BA2BDAD1E388DB06D7D50D
S31500000CDC002301208DF8193004F04CF8D0E70120E0
S31500000CEC58E7A32056E7B42054E7BA2BEDD0CDE74E
S31500000CFC58230020F04E0020F482030003830300E7
S31500000D0C0023054A10B51946FF24D01804719950D2
S31500000D1C0833502BF9D110BD5823002010B586B0DE
S31500000D2C0881089C04940024CDE902440124CDE9F1
S31500000D3C003413460A4601460320FFF7EDFE06B0C3
S31500000D4C10BD13B500240094FFF7E8FF02B010BDE8
S31500000D5C2DE9FF410F469046054688B381B37AB319
S31500000D6C00266946F0B21EF0DDFE044630B99DF849
S31500000D7C0030032B06D001360A2EF2D1204604B0E1
S31500000D8CBDE8F0819DF801202B799A42F3D1BDF88C
S31500000D9C02206B889A42EED19DF806309DF805002C
S31500000DAC00EB032080B29DF804306B71288143461A
S31500000DBC3A462946FFF7C5FF0028DCD00446DDE796
S31500000DCC0224DBE710B586B0089C04940024CDE918
S31500000DDC02440124CDE9003413460A460146062096
S31500000DECFFF79AFE06B010BD13B500240094FFF76A
S31500000DFCE9FF02B010BD0000F0B502288BB0054625
S31500000E0C0E4614461F460AD106A9F0B21EF08AFEFB
S31500000E1CC0B99DF8193023719DF81C3063713A46A0
S31500000E2C0949012005F014FE119B04930023CDE91A
S31500000E3C02330193109B009322463B4631462846CB
S31500000E4CFFF76AFE0BB0F0BD9B82030013B50024BE
S31500000E5C0194049C0094FFF7CFFF02B010BDF0B5CF
S31500000E6C87B0074614460E461622002168461D46D4
S31500000E7C04F096FBADF80C70ADF80A40F6B10822FA
S31500000E8C31460DF1010004F02FFBBDF8143043F090
S31500000E9C0203ADF8143000238DF80030BDF8343061
S31500000EACADF80E300F9ABDF83030BDF83810ADF8ED
S31500000EBC1030684611F0F6FC07B0F0BD1DB1ADF868
S31500000ECC12500C23E8E74FF6FB739C428CBF0824A8
S31500000EDC00248DF80040E1E707B5094A034610885F
S31500000EEC31B9084A084903B05DF804EB05F0CCBDEE
S31500000EFC0091064A064905F0C7FD03B05DF804FBF0
S31500000F0C62280020D2C003009E80030076C1030035
S31500000F1CA58003007FB505460E4627F01DFF2A4621
S31500000F2C044603460C49042005F092FD8CB986B1A3
S31500000F3C01238DF80E3003230093224603AB362192
S31500000F4C4FF6FC708DF80C408DF80D5008F03AFFFA
S31500000F5C0446204604B070BD87800300FF2810B5F8
S31500000F6C0C4604D10420044905F072FDFE202146EE
S31500000F7CBDE81040FFF7CEBF60820300F8B51F46F0
S31500000F8C0B8806460D461446002B69D14A88110477
S31500000F9C48BF63783349082005F05AFD6B8848F240
S31500000FAC0402934238D00FD848F20102934244D03F
S31500000FBC48F20202934248D0132B0ED1A2786378E2
S31500000FCC294903EB022229E048F20602934229D072
S31500000FDC38D348F2200293422CD03B46224629466F
S31500000FEC304600F0C4FE70B93B46224629463046D0
S31500000FFC14F02CF96A8848F221039A4203D16178DD
S3150000100C304602F065FD6B88B3F5004F02D9082017
S3150000101C02F09DFD012024E0144A1549082005F034
S3150000102C17FDDAE7134A1249082005F02DFD22793F
S3150000103C1149F3E762781149F0E71149082005F0E8
S3150000104C07FDCAE722790F49E8E70F4A0849082045
S3150000105C05F01AFDA27863780C4903EB0222DDE752
S3150000106C0020F8BDB280030028810300D78003005E
S3150000107CDE800300EF800300F5800300038103008C
S3150000108C3F810300598103007B81030080810300AB
S3150000109C2DE9F04188B006460C4690461F462CF0CA
S315000010ACE9FD0EAB0546009302460FAB21463046D2
S315000010BC10F032FE38B1264A2649022005F0C8FC4B
S315000010CC08B0BDE8F0816188BDF83820238800910E
S315000010DC0220214905F0BCFC0F9B0493BDF8383067
S315000010ECADF814308DF808600394ADF816508DF8F1
S315000010FC18808DF8197000F011FB8DF81A0000F0AD
S3150000110C0FFB8DF81B0021F02EFB8DF81C0002A89E
S3150000111C02F00CFD0028D3D1BDF838300F9A2146C9
S3150000112C284606F08BFB0028CAD1BDF838300F9A3A
S3150000113C21462846FFF722FF0028C1D1CDE90050F1
S3150000114CBDF838300F9A3146204607F0DBF8B7E782
S3150000115CF4820300AA7F0300C07F03002DE9F04F41
S3150000116C85B0804689461446BDF838600F9D9DF8BB
S3150000117C40B01F46002B2CD0474A4849042005F0A6
S3150000118C83FC2388002B78D040F20912934276D048
S3150000119C434A4449B3F5827F18BF0A4661880091D9
S315000011AC01964149042005F06FFC23886BB1022E91
S315000011BC0BD92B783D493E4A13F0010F18BF0A464E
S315000011CCAB783C49042005F05FFC3B49042005F054
S315000011DC3FFC3A4A0023114602EBC30000795845FE
S315000011EC4FD152F833A0002301EBC30210795845B6
S315000011FC4DD1FF201071002241F8332047B92388C6
S3150000120C33B9B4F90230002B02DB082002F031FCB2
S3150000121C012002F09CFC9DB12878C30710D510F074
S3150000122C040004D032460121284604F068FACDE9C0
S3150000123C01700095334622464946404601F0A6F910
S3150000124CBAF1000F06D0CDE900573346224649467F
S3150000125C4046D0473B46224649464046CDE90065C6
S3150000126C08F0BAFF3346224649464046CDE90E57AA
S3150000127C05B0BDE8F04F02F027BC114A8EE7114AC3
S3150000128C8CE701330A2BA7D14FF0000AABE70133E9
S3150000129C0A2BA9D1B2E700BF0C800300148003000F
S315000012ACFA7F0300618003001E800300FD7F0300AC
S315000012BC058003004D800300DBA3030058230020A8
S315000012CCF37F0300F77F03002DE9F0479DF82470A8
S315000012DC9DF828A0BDF82080994604460D46164672
S315000012EC0849094A022005F0B3FBCDE9099ACDF865
S315000012FC20803B46324629462046BDE8F047FFF79C
S3150000130C2DBF00BFA37F0300F4820300962813B5FC
S3150000131C04463BD034D8912843D0942836D0902814
S3150000132C48D100F0F5F9274B0090274A27490420AD
S3150000133C05F08EFBBC2C2FD12549042005F088FB2B
S3150000134C02F0FEFB02F0FDFB02F0FBFB204612F066
S3150000135C21F9204615F014FF204608F0C1FF20465F
S3150000136C11F06CFE204612F077FD2046FFF7ECF9E3
S3150000137C30B31849042002B0BDE8104005F068BB34
S3150000138CAF2807D8AB280AD2982813D1124B0E4A8D
S3150000139C124909E0BC28C3E72EF096FFD4E7912842
S315000013ACF4D1084B084A0E49042005F051FB06F00F
S315000013BCD0FDCBE722460B49022005F049FBC5E7D9
S315000013CC02B010BD918103009A810300A181030034
S315000013DCAE810300FE810300D5810300DD8103008D
S315000013ECCC810300E681030013B50F4C002004F0FA
S315000013FCC5F923686BB101A800F088FB48B92368CE
S3150000140C1A789DF804309A4203D0012A07D1022B90
S3150000141C05D1032301A8ADF8043028F01FFC04F015
S3150000142CB4F902B010BD00BF4C24002010B5044620
S3150000143C04F0A9F9204612F039F9BDE8104004F081
S3150000144CA4B900000B4B1B6813B504467BB1187886
S3150000145C01280CD122890092E37A074A074905F044
S3150000146CF7FA204602B0BDE8104028F065BA7020A5
S3150000147C02B010BD4C2400202E82030033820300E0
S3150000148C0D4B1B6837B505469BB11C780289C37A90
S3150000149C0A490092012C0A4A4FF0010008BF0224A7
S315000014AC05F0D6FA2946204603B0BDE8304028F0B0
S315000014BC71BB702003B030BD4C2400203382030076
S315000014CC2479030010B5044600F01AF9631E04F1E2
S315000014DC0F02002113F8010FFF2808BF1970934261
S315000014ECF8D10023237410BD7FB504AB03E90300C8
S315000014FC00239DF80D509DF80E6016491C46D8B277
S3150000150C01EBC0025268EAB99DF80C1000919DF8E7
S3150000151C0B309DF80A201049042005F0B5FA25B1C8
S3150000152C2A460E49042005F0AFFA0D4ABDF80830DC
S3150000153C0C49002C18BF2246042004B0BDE87040AC
S3150000154C05F086BA11F830000133B04208BF1446D4
S3150000155CD5E700BFAC8203006480030075800300EE
S3150000156C6080030079800300FFF7FCB810B50EF01D
S3150000157C24FC012300224FF4E131202014F056F80C
S3150000158C0AF006FD04460BF0F7F92246034612490B
S3150000159C012005F05DFA0AF001FD04460BF0FAF99C
S315000015AC224603460D49012005F052FA0AF0F0FCDA
S315000015BC012303FA00F040F2A17318420BD0084C39
S315000015CC20780AF0F1FC20780AF0AAFD2078BDE814
S315000015DC10400AF0ABBE10BDB9830300CF830300E5
S315000015EC5D1B002037B50022114601A802F069FAEE
S315000015FC00286DD125F082FD0346002863D03649BC
S3150000160C364A012005F024FAAD2135480AF0A6FA2F
S3150000161C04F0AAF8FFF774FB00F0E4FB00F08EFB75
S3150000162C0221084605F084FDFFF7DEFE02F004FEFB
S3150000163C2C4B2D4C2D4D41F202021A802C4AFF23C5
S3150000164C13802C4A4FF40040138021F0AFFE012189
S3150000165C29480EF01BF800230422092102200FF062
S3150000166C55F800230422062101200FF04FF804F050
S3150000167C5DFC01A804F048FC012808D19DF8040083
S3150000168C04F06AFC18B904F0D1FC04F04FFC0BF022
S3150000169C41F825F0DDFD03F067FB012801D000F0D1
S315000016AC56FB14F019F8FFF7A7F92021002002F0D9
S315000016BCF5FF28B1224629464FF6FF7005F0E4F9EE
S315000016CC04F065F8D5E70D49022005F0C1F99FE74E
S315000016DC019803B030BD00BF7B8303000C80030070
S315000016EC8C8303005A210020A7830300B5830300D3
S315000016FC5C2100205E21002000350A009D8303003A
S3150000170C024910237F2209880AF04ABF6CD70300CE
S3150000171C25F0B8BE25F0C2BE25F032BC2CF0D4BDE7
S3150000172C1FB568462CF0B4FAC8B902A92EF0D8FA3F
S3150000173C082269460DEB020003F039FF10B90020B0
S3150000174C04B010BD02A901202EF0CAFA082269467F
S3150000175C0DEB020003F02BFF90B90120F0E72CF003
S3150000176C89FA4FF6FF739842044609D000202EF0F2
S3150000177CCFFA8442E3D001202EF0CAFA8442ECD090
S3150000178CFF20DDE738B5054604F010F8044698B995
S3150000179C4FF4A0532A460949082005F059F94FF48D
S315000017ACA051284608F080FA05490246044608204E
S315000017BC05F04EF903F0E9FF204638BDEF83030030
S315000017CCFB8303007FB5054603F0DDFF25F05AFECB
S315000017DC40B16B88B3F5006F04D1681D02F076F941
S315000017EC044616E0284602F0B0F9D8B90446E6B22B
S315000017FC694630461EF096F980B99DF800306BB9F3
S3150000180C294630461EF010FA0028E9D075280BD070
S3150000181C8C2403F0BAFF204604B070BD01340A2CA8
S3150000182CE5D1F5E78D24F4E78B24F2E738B50546C8
S3150000183C03F0A9FF284602F086F998B928461EF04F
S3150000184CC1F968B175280CBF8B24882423462A4617
S3150000185C0549082005F0FCF803F097FF204638BD33
S3150000186C0446F3E78D24F7E70584030037B502A990
S3150000187CFF2301F8013D044602F01DF918B19DF84D
S3150000188C070003B030BD094B03EB04131D7B20F09E
S3150000189C6CFF854201D0FF20F3E7204600F0EAFA00
S315000018AC0028F8D0204600F051FDEAE7F04E002063
S315000018BC2DE9F04107460D4602F0FFF80646F0B951
S315000018CC384600F081FCFF2819D00E4C04EB0014AE
S315000018DC94F80C8020F049FF804510D163882B804A
S315000018ECA3886B80A3792B710121384600F034FD57
S315000018FC31466871384600F02FFD0126A871304636
S3150000190CBDE8F081F04E0020F8B504460E461546AB
S3150000191C00F05AFCFF2802D14FF6FF70F8BD0B4BB6
S3150000192C03EB0010077B20F020FF8742F4D146B969
S3150000193C01222946204600F035FD0028ECD000880F
S3150000194CECE7012EE8D10022F3E700BFF04E0020B1
S3150000195C10B5044603F017FF2046FFF7D7FCBDE889
S3150000196C104003F012BF000037B50C4B1B681C5C13
S3150000197C94420D460AD900922346094A0949042085
S3150000198C05F066F80024204603B030BD002201465F
S3150000199C00922346284626F03DF9F4E7DC1B00208E
S315000019AC0C8003004F830300F0B599B0144603ADC9
S315000019BC0F46064603F0E7FE204652222946FFF75D
S315000019CCD3FF84B28CB10DF10A002CF043F90DF162
S315000019DC0B002CF047F99DF90B309DF80A20CDE948
S315000019EC004539463046FFF753FB03F0CEFE19B0DF
S315000019FCF0BD2DE9F0439BB014469DF888508946FE
S31500001A0C80461F4603F0BFFE2946204610F040F9DB
S31500001A1C80B905AE522231463846FFF7A5FF48B1CC
S31500001A2C80B20090CDE901672B46224649464046D6
S31500001A3CFFF794FB03F0A9FE1BB0BDE8F083000092
S31500001A4C2DE9F7431C4607460E4601202649BDF8EC
S31500001A5C30809DF8349015461A4604F0F9FF21465D
S31500001A6C0A9826F0FFF8FF2804463AD00B9B18700C
S31500001A7C062F34D8DFE807F00404041219292200D3
S31500001A8C03462A46314638462CF05AFB0546204674
S31500001A9C25F08CFF284603B0BDE8F0830C220346E4
S31500001AAC114628462CF01EFBF0E7EA7A0346CDE9F0
S31500001ABC0089114628462CF0D7FAE7E703460C2294
S31500001ACC294630462CF076FAE0E70190EB7A009343
S31500001ADC4A462B46314640462CF090FAD6E702256C
S31500001AECD5E71825D6E700BF67830300082201490E
S31500001AFC03F0FABC6D60002010B50446084625F0CC
S31500001B0C53FA2046BDE8104027F0A4BA27F0A2BA33
S31500001B1C05207047062070470A20704708F0F2BD72
S31500001B2C08F062BD08F05ABD014B1878704700BF2B
S31500001B3CF41B00204B207047024B18685968FFF7BE
S31500001B4CD3BC00BFEE10040013B5044603F01BFE15
S31500001B5C0DF106002CF07EF80DF107002CF082F842
S31500001B6C9DF907209DF8061020460FF0E9FC30B9C8
S31500001B7C9DF907209DF80610204613F0AFFC03F0E4
S31500001B8C04FE02B010BD38B504460D4603F0FBFD4D
S31500001B9C294620460FF0BAFE18B92946204613F0FE
S31500001BACADFCBDE8384003F0F0BD38B504460D4633
S31500001BBC03F0E9FD294620460FF02CFD18B92946FD
S31500001BCC204613F079FCBDE8384003F0DEBD38B58D
S31500001BDC04460D4603F0D7FD294620460FF050FD6E
S31500001BEC18B92946204611F0B5FDBDE8384003F07A
S31500001BFCCCBD704700F0D0B810B5044C22780AB1B1
S31500001C0C17F058FC0123237010BD00BF5E1B00208B
S31500001C1C00207047014B187000207047A823002045
S31500001C2C2DE9F341224B01931646044640B13AB1D5
S31500001C3C002301AA9D5C8D4233D00133042BF9D1CC
S31500001C4C022002B0BDE8F081E35C93FAA3F30146EF
S31500001C5C180E03F07BF8434603F10108DBB2BB42D6
S31500001C6CF2DBC2B292FAA2F2C0F30F2393FAA3F3F9
S31500001C7C100E1B0E03EB00236219DB439BB212F80A
S31500001C8C020CD9B2884211D112F8012CB2EB132FE7
S31500001C9C0CD132462146284602B0BDE8F04120F070
S31500001CAC9FB800234FF6FF708F1ED5E7BD20C8E7FF
S31500001CBC080A0E122DE9F0411D4686B01E4B16463B
S31500001CCC074603A888461C781EF0BAFA16F0FD0FD4
S31500001CDC2FD030B9BDF80C30990702D5032E08BFAA
S31500001CEC032433462A46414638460094FEF76EFBDB
S31500001CFC33462A4641463846009413F0FFFAFFF75E
S31500001D0C07FD854203D02946384608F029FC022CEB
S31500001D1C0BD0FFF7FDFCA84207D0B21E534253412D
S31500001D2C29460022384608F065FC204606B0BDE878
S31500001D3CF0810324D5E700BFA823002008B5FEF7E1
S31500001D4CA3FB06F0CBF8BDE8084011F075B908B551
S31500001D5C01F0B9FE06F0FCF810F0F8F910F0F0FA04
S31500001D6CBDE8084012F070BA704701F0DDBEF8B558
S31500001D7C04460D4616461F4601F0DCFE40B93B46AE
S31500001D8C32462946204609F0A9FB00F00100F8BDB1
S31500001D9C0120FAE70020704738B504460D4601F0DD
S31500001DACDBFE2946204611F063F929462046BDE89C
S31500001DBC384014F091B9FEF7DFBBFEF70FBC0000FC
S31500001DCC10B5074A0123332B194601D1002006E032
S31500001DDC0233D41814F8034C8442F4D1505C10BD71
S31500001DEC1B840300F0B587B040F20123194A1A4947
S31500001DFCADF80030194B1A4D0220CDE904230870BA
S31500001E0C002301221749ADF80430ADF80820ADF8CF
S31500001E1C0C300DF1100E0DF1140C01AF02AE03AC2B
S31500001E2C10461DF803200A703EF813204A803CF831
S31500001E3C13208A80DA5D8A71F25C487305EBC20264
S31500001E4C8A601A5D0A7310310BB107B0F0BD01231D
S31500001E5CE7E700BF04010401A923002004011008D0
S31500001E6C48880300F04E0020014B1878704700BFDD
S31500001E7CA9230020034B03EB0010407B00F001006C
S31500001E8C704700BFF04E0020413803288CBF00205D
S31500001E9C01207047413801288CBF00200120704773
S31500001EAC433801288CBF0020012070470020704762
S31500001EBC064BC01A064B801043430F3B9BB2022BBA
S31500001ECC41F2A20028BF0020704700BFD085030056
S31500001EDCCDCCCCCC0388B3F57C4F01D3FFF7E8BF50
S31500001EEC0846FFF7E3BF10B54A880488A2420DD115
S31500001EFC037B0C79234009D0B2F57C4F08D3FFF74E
S31500001F0CD7FF0B891B1A5842584110BD0020FCE71D
S31500001F1C0120FAE738B50D88D488A5420AD1038882
S31500001F2CB3F57C4F08D2FFF7D5FF13891B1A58421D
S31500001F3C584138BD0020FCE70120FAE72DE9F04FA7
S31500001F4C8BB04FF0000A01939DF850300593714BFE
S31500001F5CDFF8D0911B7804918046154608935746B6
S31500001F6C089A5FFA8AF39A4201D8862063E099F8B8
S31500001F7C00300293D9F808300393029A98F800308F
S31500001F8C934240F0BF8099F80D30D80709D5039BD2
S31500001F9C1B7907934FF0000B079A5FFA8BF39A4263
S31500001FAC04D80AF1010A09F11009D9E7039B1E6846
S31500001FBC142303FB0B6641463046FFF794FF0028BB
S31500001FCC00F09C8033890693002306999AB29142BD
S31500001FDC02D80BF1010BDFE7746809930C2202FBA4
S31500001FEC0344214642463046FFF794FF2279099B6B
S31500001FFC00287BD0049B03B11C6091061ED4464876
S3150000200C09E01A79920642BFD8783F18BFB20C3352
S3150000201C9C42F6D84148059B074493B1214630466D
S3150000202CFFF758FF2388B8F802100246029801F011
S3150000203C25FD60BB7E200BB0BDE8F08F0027384B2A
S3150000204CE6E7002D35D021463046FFF743FF2388BF
S3150000205CB8F802100246029801F00EFD0028E9D0ED
S3150000206CDFF8C49028462379DB0615D52146304681
S3150000207CFFF730FF98F80060B8F802101495034685
S3150000208C22463046CC460BB0BDE8F04F604738468A
S3150000209CDFF898902F46E6E7019AA3785AB9E278CA
S315000020ACA3F14101012908D8013AD2B2394606F00A
S315000020BC51FA0020BFE7019AF2E7433B012B05D802
S315000020CC023A92B2394606F05FFAF2E7059B2BB953
S315000020DC019B1BB1E37801998B4218D8394617B985
S315000020EC03F05EFAE5E703F0FFF9E2E712F0300FD2
S315000020FC02BFE0783F18BFB2013366E77089074428
S3150000210CBFB266E7039BD8880744BFB249E789206C
S3150000211C91E700BFA9230020104F0020304E00206D
S3150000212C98840300F04E0020B73A0000BB3A00003A
S3150000213C2DE9F84390F8048006461F4600254FF01B
S3150000214C1409EBB2984501D8002416E009FB05F0FA
S3150000215C33681C181B5A8B4217D12AB1802A0FD10F
S3150000216C94F90C00002810DAB3F57C4F05D3204601
S3150000217CFFF79EFEB84200D03FB92046BDE8F88373
S3150000218C402A02D1207B4006EED40135D9E7000067
S3150000219C30B50B4B0B4A1C780023D9B2A14201D3A4
S315000021AC002030BD1946013302EB031515F8105CFF
S315000021BC8542F2D102EB0112507B00F00100F0E7F0
S315000021CCA9230020F04E002070B50A4B0A491D7851
S315000021DC0023DAB2AA4202D3FF22104670BD1C01BC
S315000021EC6618645C844202D1747BE407F5D401332F
S315000021FCEFE700BFA9230020F04E00202DE9F041A7
S3150000220C0D4616461F46FFF7DFFFFF280AD0074C80
S3150000221C04EB00103B46324629468068BDE8F04187
S3150000222CFFF786BF0020BDE8F08100BFF04E00200E
S3150000223C08B513460022FFF7E1FF003018BF012056
S3150000224C08BD08B513464022FFF7D8FF003018BF6B
S3150000225C012008BD08B513468022FFF7CFFF0030DA
S3150000226C18BF012008BD08B540220023FFF7C6FFA2
S3150000227C003018BF012008BD08B580220023FFF7E7
S3150000228CBDFF003018BF012008BD000030B5094B5A
S3150000229C094C19780023DAB28A4201D3FF2206E0F0
S315000022AC013304EB031515F8105C8542F3D1104687
S315000022BC30BD00BFA9230020F04E00202DE9F041CF
S315000022CC0D4616461F46FFF7E1FF054C04EB0010C2
S315000022DC3B46324629468068BDE8F041FFF728BFE9
S315000022ECF04E00202DE9F84F0746884691469A464F
S315000022FCFFF784FFE0B10F4BDFF83CB01E780025EA
S3150000230C2C46EBB2B34202D32046BDE8F88F01351A
S3150000231C0BEB051313F8100C8742F5D053464A46BF
S3150000232C4146FFF7CBFF002818BF0134E4B2E8E7BB
S3150000233CFF24E9E7A9230020F04E00201346402293
S3150000234CFFF7D0BF0022FFF7F9BF0000014B0001D9
S3150000235C185C7047F04E002070B50D46FFF734FF41
S3150000236CFF2818D00E4B03EB001082689AB100239D
S3150000237C117918461426DCB2A14200D870BD146837
S3150000238C06FB0344247B45B114F0400F1CBF0130FF
S3150000239CC0B20133EFE70020F0E714F0800FF5E749
S315000023ACF04E00202DE9F0410F469046FFF70CFF4A
S315000023BCFF280BD0104B03EB0010002385682979FE
S315000023CC1C464FF0140CDAB2914202D80020BDE83C
S315000023DCF08128680CFB0300067BB8F1000F08D0CF
S315000023EC16F0400F03D0BC42F1D00134E4B20133F5
S315000023FCE9E716F0800FF5E7F04E00202DE9F04FD7
S3150000240C89B0074620F0AFF93D4B1B780293824604
S3150000241C00244FF00C0B029B9C422ED2FF2F05D0B2
S3150000242C3846FFF7D1FEFF28044626D0FF2F354E3F
S3150000243C4FEA041360D1F218127B52455CD001347A
S3150000244CE4B2E8E71B68142202FB05352B89B3F5C9
S3150000245C967F01D90AF05EF94FF000092A891FFA16
S3150000246C89F39A420CD808F10108B3681A795FFA15
S3150000247C88F5AA42E6D8FF2FE1D009B0BDE8F08F67
S3150000248C1FFA89F168680BFB01F14218137913F0F6
S3150000249C100F29D196F800C08DF814C0B5F800C0FD
S315000024ACADF816C013F0400F0CBF4FF0400C4FF0B8
S315000024BC800C8DF818C0415AADF81A1028461146F2
S315000024CC0393FFF707FD039BADF81C005B07D17860
S315000024DC0DD50229926800D91268012300930023B6
S315000024EC194605A8FFF72AFD09F10109B6E70229E5
S315000024FC94BF08329268F0E74FF000081E44B4E728
S3150000250CA9230020F04E00200021FFF777BF10B55D
S3150000251C01210446FFF772FF2046BDE81040FFF785
S3150000252C23BC704710B5047B14EA010310D00022BB
S3150000253C01238B4203D3036953F8220010BD1C42BE
S3150000254C18BF01324FEA430318BFD2B2DBB2F0E731
S3150000255C1846F3E7F8B516461F469DF81820BDF841
S3150000256C1C300546FFF74AFE78B10421FFF7DAFF67
S3150000257C044650B1284603F019F93A463146284626
S3150000258CA047BDE8F84003F000B9F8BD2DE9F74FB8
S3150000259C0C9D9DF834B01F4681468A46BDF83830EE
S315000025AC144612B30DB307B392F804802A786188E7
S315000025BC12F0080F14BF402280224046FFF71EFE81
S315000025CC98B10821FFF7AEFF064670B1404603F0FE
S315000025DCEDF8CDE9005B3B46224651464846B047EE
S315000025EC03B0BDE8F04F03F0D0B803B0BDE8F08FF0
S315000025FCF8B5BDF8185017461A462B460446FFF791
S3150000260CFDFDE0B175B90221FFF78CFF0546B0B1AF
S3150000261C204603F0CBF839462046A847BDE8F840DB
S3150000262C03F0B3B81021FFF77DFF064638B12046FC
S3150000263C03F0BCF82A4639462046B047EEE7F8BD0B
S3150000264C73B5BDF8184016461A4623460546FFF7DD
S3150000265CD5FDB8B1C4B92021FFF764FF044670B1AB
S3150000266C284603F0A3F8099B00939DF81C209DF8BF
S3150000267C203031462846A047044603F086F820460B
S3150000268C02B070BD8624FAE70024F8E72DE9F04184
S3150000269C86680446007803F089F8002514273279F9
S315000026ACEBB29A4203D8BDE8F04103F06EB87B4317
S315000026BC32682078D15A02EB030801F0E5F90121C2
S315000026CC4046FFF72FFF034608B12078984701359F
S315000026DCE5E7000070B5084D084E00242B78E0B2F3
S315000026EC834200D870BD06EB0010437BDB0701D597
S315000026FCFFF7CCFF0134F1E7A9230020F04E0020B0
S3150000270C2DE9F0411E4B06461E480C46197800234F
S3150000271CDAB28A4203D300242046BDE8F0815A1C63
S3150000272C00EB021515F8105CB54201D01346EFE725
S3150000273C00EB0310437B03F001022CB143F00103C1
S3150000274C437342B10124E7E74473002AFAD00546E5
S3150000275C4FF014080DE0FFF799FFDDE71B6808FB47
S3150000276C04F41A19195B127B3046D209FEF7AEF93E
S3150000277C3C46AB681A79671CE4B2A242EED8E1E794
S3150000278CA9230020F04E002010B5094B094AC01AA7
S3150000279CC0F38F0000239C5A844202EB030101D143
S315000027AC488810BD0433302BF5D10020F9E700BF63
S315000027BC248703004E8403002DE9F04F85B00F46A5
S315000027CC9346BDF8382001929DF840107C7D88B365
S315000027DCACB3012C18BF04249DF84480DFF8889014
S315000027EC002635461FFA88F836F80900584519D1DF
S315000027FC09EB060090F803E01EEA040F12D090F8DD
S3150000280C02A08A450ED31EF0100FFA7B19D04AB1DE
S3150000281CCDE90231FFF7B8FFB7F810C08445DDE902
S3150000282C023110D00436B6F5927FDDD1012005B009
S3150000283CBDE8F08F002C14BF04240824CCE7022436
S3150000284CCAE7002AEED1A8450BD0019AAA4208D9AC
S3150000285C03F805A00F9A1088013501301080ADB22F
S3150000286CE0E70020E3E700BF248703002DE9F04FE3
S3150000287C89B01D46BDF848409DF8503001939346EB
S3150000288C23462A4607460E46FFF7B8FC8DF8147009
S3150000289CADF816608DF81850ADF81AB0ADF81C40AE
S315000028AC814618B9012009B0BDE8F08F05A9FFF7DC
S315000028BC1AFB0028F6D09DF84C3000259BB22E460C
S315000028CC2F462C46029336E00C231FFA85F8B9F8EE
S315000028DC002003FB08F8D9F80430B2F57C4F03EB63
S315000028EC080A1AD333F8080058452ED3029BA34284
S315000028FC2DD902F0A1FE9AF8020002F089FE019B86
S3150000290C43B19AF8043013F0010F0CBF05200720D1
S3150000291C02F07EFE0134A4B219E033F80820ADF8BB
S3150000292C1A20514605AA48460393FFF7F3FA039B70
S3150000293C0028D7D10135B9F80820ABB29A42C3D8D2
S3150000294C3C44A31B58425841ADE70137BFB2013690
S3150000295CB6B2EFE72DE9F04F8FB098469DF8703080
S3150000296C06930023BDF860908DF82C00ADF82E1060
S3150000297CADF83220009305460E46174608A91A46AE
S3150000298C0BA80893199C9DF868B09DF86CA08DF85F
S3150000299C3080ADF83490FFF7D1FA089B002B00F08D
S315000029AC9880BAF1000F07D19A785A4540F0948076
S315000029BC1A79D10740F193801A79520735D59A685E
S315000029CC5168926809910A92987805F059FE089B0D
S315000029DC059093F803A0BAF1020F17D80346524696
S315000029EC214609A805F0F1FD059B079052462146A4
S315000029FC0AA805F0EAFD079B012B01D0013014D182
S31500002A0C4FF0870A50460FB0BDE8F08F059B09982A
S31500002A1C5246214605F0D9FD0128F1D0059B0A98AE
S31500002A2C5246214605F0D1FDE8E7069B002B59D10D
S31500002A3C089B0394DB78CDF80090CDE901B33A46B8
S31500002A4C43463146284601F06BF882460028D9D118
S31500002A5C089B0394DB78CDF80090CDE901B33A4698
S31500002A6C434631462846FFF7EBFD82460028C9D17E
S31500002A7C01230093069B224619460BA8FFF75EFA24
S31500002A8C82460028BED1089B324629462046FFF7CF
S31500002A9C48FD43463A4631462846CDE901B4CDF8C1
S31500002AAC0090FDF7BFFD089B0394DB78CDF80090F2
S31500002ABCCDE901B33A4643463146284601F02FF894
S31500002ACCCDF8009043463A4631462846FFF790FD2E
S31500002ADC98E74FF0860A95E74FF08D0A92E74FF08C
S31500002AEC880A8FE74FF0000A8CE72DE9F04786B08D
S31500002AFC07460F9D9DF84060BDF838400094CDE91F
S31500002B0C0156884691469A4600F0B4FF98B10228C1
S31500002B1C0ED84FF00003049308BF0123CDE90263DE
S31500002B2CCDE9004553464A4641463846FFF712FF63
S31500002B3C06B0BDE8F0870120FAE730B587B000246F
S31500002B4C0125CDE903549DF82C5002950A9DCDE93B
S31500002B5C0045FFF7FFFE07B030BD30B587B0002447
S31500002B6C0125CDE903549DF828500094CDE9013593
S31500002B7C4023FFF7EFFE07B030BD10B586B04FF01F
S31500002B8C010C0024CDE9034C9DF828400294099CC5
S31500002B9C0194BDF820400094FFF7DCFE06B010BD92
S31500002BAC30B587B000258DF81030BDF828308DF87B
S31500002BBC0C00ADF80E10ADF81220ADF814300095DF
S31500002BCCBDF830300B9A0D9C029502A903A8FFF7AD
S31500002BDCB5F918B914B1029B9B78237007B030BDB8
S31500002BEC1FB5089C03949DF81C400294069C019406
S31500002BFC00240094FFF7D4FF04B010BD2DE9F04F6C
S31500002C0CDFF8CCB099B04FF00008FFF72DF95FFA5A
S31500002C1C88F5A84202D819B0BDE8F08F2D010BEB50
S31500002C2C05034FF0000904930BEB05035FFA89F4D7
S31500002C3C9B681A79A24202D808F10108E5E71B68DD
S31500002C4C142202FB043400262289B3B29A4202D81B
S31500002C5C09F10109E8E70C231FFA86FA03FB0AFAC5
S31500002C6C6368059303EB0A0709F054FD39462046C1
S31500002C7CFFF730F9049B218893F800C0059B33F8C5
S31500002C8C0A203B794FF0000E13F0400F0DF11C0A91
S31500002C9C4FF04103CDE9023ECDE9000A14BF802373
S31500002CAC40236046FFF77CFF862806D0B878FFF7EE
S31500002CBCF1F820B1504602F047FD0136C4E7B8786A
S31500002CCCFFF7EEF80028F8D0504602F042FDF4E784
S31500002CDCF04E0020F0B597B01646BDF87470042F70
S31500002CEC48D90DF1130403944124029405ADBDF8A3
S31500002CFC704000940195FFF753FF0446A0BB9DF866
S31500002D0C1300A0F14103012B21D8284602F01CFD2B
S31500002D1C0130C4B2E31CBB422CDA304602F08CFC08
S31500002D2C154E002002F074FC9DF8130002F070FCA6
S31500002D3C33881A19FE2A1DDC1048A4B22246184400
S31500002D4C294602F0D1FB30880444348012E0A0F10D
S31500002D5C4303012B04D8284602F0FBFC0230D8E7CB
S31500002D6CFFF72EF80446D5E7304602F065FC204600
S31500002D7C02F04EFC17B0F0BD684F0020784F0020D3
S31500002D8C10B500221346815CA1F13004092C0AD837
S31500002D9C303B032A0B4402F1010218BF1B01042A23
S31500002DACF1D1184610BDA1F14104052C01D8373BD1
S31500002DBCEFE7A1F16104052C01D8573BE9E70023A5
S31500002DCCEFE700002DE9F84F0A688B6880465D1C1A
S31500002DDCD018D35C222B8B46154440F0CE804C6821
S31500002DEC2E460023B11AA14280F0C78031782229E1
S31500002DFC1DD1C3F10103301ADBF81020184490479B
S31500002E0C8146002800F0B98004464FF00C0AB54202
S31500002E1C17D3002323701023C8E90339DBF80030DD
S31500002E2CF61A0136CBF808600120BDE8F88F5C294C
S31500002E3C05D10136B11A8C4240F29F80013301361E
S31500002E4CD0E72B785C2B03D0237001350134DEE7F9
S31500002E5C721B002A08DD6B78662B67D016D82F2BD1
S31500002E6C12D00CD8222B0FD0DBF8143048469847DA
S31500002E7CDBF80000281ACBF808000020D5E75C2BFD
S31500002E8C02D0622BF0D10823237051E0722B53D061
S31500002E9C03D86E2BE8D10A23F6E7742B4FD0752B8B
S31500002EACE2D1052AE0DDA81CFFF76AFFA0F55C431A
S31500002EBCB3F5806F0746D7D3A0F55843B3F5806FAB
S31500002ECC40D2AB1DF31A052BCEDDAB795C2BCBD1E7
S31500002EDCEB79752BC8D105F10800FFF751FFA0F56A
S31500002EEC5C43B3F5806FBFD2264BC0F3090003EAEF
S31500002EFC8727384300F580370C23B7F5803F30D34E
S31500002F0C214A9742B0D84FF0F00C042000F1FF3E56
S31500002F1C54FA8EFEA645FAB227D1012814BF42EA0E
S31500002F2C0C0202F07F022270044403E084F800A035
S31500002F3C013402231D446AE74FF00D03A4E74FF05A
S31500002F4C0903A1E77F284FF0060306D9B0F5006FF9
S31500002F5CD3D24FF0C00C0220D8E74FF0000C012062
S31500002F6CD4E74FF0E00C0320D0E702F03F0262F00A
S31500002F7C7F020EF80129BF09CCE7002D7FF478AF4C
S31500002F8C284652E700FC0F00FFFF100010B540B1B9
S31500002F9C016871B142688368934206D2CC5C202CDE
S31500002FAC00D910BD01338360F5E7FAD1013A82608E
S31500002FBCF7E70846F5E710B1806800B101B970472C
S31500002FCC01390068F9E72DE9F0470F4618B90024D6
S31500002FDC2046BDE8F0870029F9D08468002A3ED146
S31500002FEC002CF4D0A66ABEB3BE4241D007F1FF3A1C
S31500002FFC1AF8018F31F0B2FE4044B146437816F808
S3150000300C015B03F00303012B08BF08F1200831F024
S3150000301CA5FE28442B4642789AF8005002F003028B
S3150000302C012A08BF2033984526D031F097FE284454
S3150000303C99F80060437803F00303012B08BF203591
S3150000304C31F08CFE30443346427802F00302012AFA
S3150000305C08BF20339D420BD02468C1E72468002C9E
S3150000306CB5D0A16A21B1384631F09CFF0028F5D1C4
S3150000307CA36A002BACD1AAE7002DB9D1F8E710B59D
S3150000308C034630209847044618B13022002131F00F
S3150000309CA0FE204610BD000070B50F4D044604B9C5
S315000030AC70BDE3682668D90503D4A06808B1FFF79C
S315000030BCF3FFE368DA0503D4206908B16B68984717
S315000030CCE3689B0503D4A06A08B16B689847204651
S315000030DC6B6898473446E2E7601B00202DE9F04701
S315000030EC064692B00C4609B9002023E00F68002F63
S315000030FCFAD08D68D1F8048005F10409C1450BD8C6
S3150000310C0422AE49781931F082FF28B90423F36002
S3150000311CC4F8089001200DE005F1050AD0450CD342
S3150000312C0522A749781931F072FF30B90120F060F9
S3150000313CC4F808A012B0BDE8F087C1450CD804222B
S3150000314CA049781931F063FF30B90223F3600122EC
S3150000315C0023C6E90623DBE74545C5D27B5D222B5A
S3150000316C07EB050104D121463046FFF72BFEE1E7BC
S3150000317C2D2B03D0A3F13002092A51D80023019339
S3150000318CA8EB050502AFCA5C392A31D8302A05D21C
S3150000319C2D2A03D02E2A01D02B2A05D1FA5401331D
S315000031AC3F2B01D0AB42EED112AA1344002501A944
S315000031BC384603F8405C32F04DFDDDF804A0BA4504
S315000031CC8046894690D0C6E908897AA3D3E90023BC
S315000031DC31F08AFB80B16FF000420023C6E906236A
S315000031EC0823F360A368AAEB07071F44A76091E7BF
S315000031FC452AD3D0652AD0E70022734B4046494670
S3150000320C31F068FB20B14FF000424FF0FF33E5E799
S3150000321C4946404631F07CFBC117C6E90601DFE79B
S3150000322C5B2B54D1E368B3F57A7FBFF45DAF013302
S3150000323CE3607B5D5B2B7FF457AF0135A5602046C1
S3150000324CFFF7A4FED4E9012393425DD22268D25C37
S3150000325C5D2A01D1002527E0013B4FF00008A36051
S3150000326C45462069FFF70BFF074648B335B3C8F848
S3150000327C0000C0F80480A3680133A3602046FFF762
S3150000328C85FE21463846FFF729FFE0B12046FFF7B9
S3150000329C7DFED4E90123934215D22268D35C2C2BF4
S315000032ACB846DED05D2B0ED1E368013BE3602023EC
S315000032BCC6E90253A3680133A3602BE70546DAE798
S315000032CC002D3FF411AF2846FFF7E6FE0CE77B2BEB
S315000032DC7FF40AAFE368B3F57A7FBFF405AF013329
S315000032ECE3607B5D7B2B7FF4FFAE0135A56020464A
S315000032FCFFF74CFED4E90123934205D22268D25C37
S3150000330C7D2A04D1002746E0013BA360ECE64FF092
S3150000331C0008013BA3604746C1462069FFF7AFFE94
S3150000332C0546002840D0002F3CD0C8F80000C0F855
S3150000333C0480A3680133A3602046FFF727FE2146CD
S3150000334C2846FFF73FFD90B32046FFF71FFE2B697B
S3150000335CAB62D4E901239342C5F8109027D22268B8
S3150000336CD25C3A2A23D10133A3602046FFF70EFE26
S3150000337C21462846FFF7B2FEC8B12046FFF706FEE7
S3150000338CD4E90123934212D22268D35C2C2BA84693
S3150000339CC3D07D2B0BD1E368013BE3604023C6E928
S315000033AC027387E70746C4E7002F3FF49DAE384605
S315000033BC8AE700BF0000C0FFFFFFDF415C88030007
S315000033CC61880300678803000000E0C12DE9F04323
S315000033DC334F89B006468846914600211C2201A827
S315000033EC002431F0F6FCC7E90044002E4DD03046DF
S315000033FC019631F004FE2B4B0130029093E8070046
S3150000340C08AB03E90700FFF73AFE054678B30198C7
S3150000341C70B1039B5BB9029B042B06D9032222498C
S3150000342C31F0F5FD08B90323039301A800E020460B
S3150000343CFFF7ACFD01462846FFF750FEA0B1B9F1E7
S3150000344C000F06D1B8F1000F21D1284609B0BDE80E
S3150000345CF08301A8FFF79AFDDDE90223934203D21C
S3150000346C019AD35C002BEDD02846FFF715FEDDE95B
S3150000347C0223934201D382B1531EB8F1000F02D03E
S3150000348CF218C8F80020C7E900630025DDE7019BA8
S3150000349C039A1344C8F80030D7E71346EDE700BF8C
S315000034ACAC230020601B0020588803000022114624
S315000034BCFFF78CBF10B18368002003B97047013049
S315000034CC1B68FAE7002901DBFFF775BD0020704782
S315000034DC0022FFF778BD0122FFF775BD38B5C37B17
S315000034EC05460BB1832038BDC47C2CB906F010FD03
S315000034FC20B9EB7B002BF5D18120F4E72046F2E7CF
S3150000350C38B5C37B05460BB1832038BDC47C6CB97A
S3150000351C017D82898B1C9A420AD3806802F0EFF8EF
S3150000352C0DF072FF30B9EB7B002BEDD18120ECE76F
S3150000353C8020EAE72046E8E7C37B10B504460BB1CA
S3150000354C832010BDC37C1BB1012B10D08120F8E762
S3150000355C017D82898B1C9A420CD3806802F0CFF8CD
S3150000356C0EF06AFE40B9E37B002BE9D1EEE70EF0D4
S3150000357C7BFEF7E78020E4E70020E2E7C37B2DE93A
S3150000358CF041044613B18320BDE8F081C37C032BC4
S3150000359C18D8DFE803F002193E4D017D8289CB1C59
S315000035AC9A4201D28020EFE78068455C013102F037
S315000035BCA6F8014628460EF02DFD002847D1E37BE0
S315000035CC002BE0D18120DFE7037D8289591C8A42DA
S315000035DCE8D39DB2691C881C8242E3D3A068C65C02
S315000035EC02F08DF80746A068B4F80C800335284421
S315000035FC02F0AAF8284401308045D3D3A289A068EA
S3150000360C294602F083F83946024630460EF008FD8C
S3150000361CD3E7007DA289831C9A42C3D383B2A568E3
S3150000362C9A1C01332A44E95C285C0EF0FFFCC4E7C3
S3150000363C017D8289CB1C9A42B4D38068455C0131EA
S3150000364C02F05DF8014628460EF0F6FCB5E70020C0
S3150000365C9AE72DE9F34790F80FA00446BAF1000F4C
S3150000366C40F03A81C37C042B00F0C6800AD8012BAB
S3150000367C67D047D3022B00F09D80032B00F0AD8062
S3150000368C812045E0402B00F0CD8023D8062BF7D1C6
S3150000369C037D8289591C8A4239D39DB2A91C8A4260
S315000036AC05F1010733D3881C824230D3A068C65C6F
S315000036BCC75D02F024F80246002E40F0B080A168E7
S315000036CC2B1D0535CB5C0D4400953946304611F063
S315000036DC61FF2DE0412B00F0B980422BD0D1037D48
S315000036EC8289191D8A4212D39DB28068691CC65CF8
S315000036FC02F005F80335A36801465A5D304613F00F
S3150000370CA9FD15E0037D8289191D8A4203D280200A
S3150000371C02B0BDE8F0879DB28068691CC65C01F0FA
S3150000372CEEFF0335A36801465A5D304611F016FFCD
S3150000373C002840F0D380E37B002B14BF832081202C
S3150000374CE6E7037D8289591C8A42E0D39DB2691C47
S3150000375C881C8242DBD3A068C65C01F0D0FFA2892C
S3150000376C291D8A42074605F10303D0D3A06810F839
S3150000377C0380DEB901F0C3FF06352946A2898146CE
S3150000378CA06801F0C3FF8246A068284401F0DCFF64
S3150000379C01300544A06810FA85F5CDE900A54B4625
S315000037AC42463946304611F02FFFC1E74FF6FF79F6
S315000037BC5546F2E7037D8289191D8A42A7D39DB22D
S315000037CC8068691CC65C01F09AFF0335A368014644
S315000037DC5A5D304611F0CCFEAAE7017D8289CB1CDE
S315000037EC9A4294D38068455C013101F088FF01460A
S315000037FC284611F0C3FE9BE7037D8289191D8A4278
S3150000380C85D39DB28068691CC65C01F078FF0335D0
S3150000381CA36801465A5D304611F0B6FE88E7FF23D1
S3150000382C002551E7037D8289191D8A42FFF46FAF8B
S3150000383C9DB28068691CC65C01F061FF0335A36804
S3150000384C01465A5D304613F0E9FC71E7037D828927
S3150000385C591C8A42FFF45BAF9DB2691C881C8242DC
S3150000386CFFF455AFA068C65C01F049FFA289291D7B
S3150000387C8A42074605F10303FFF449AF881C8242CE
S3150000388CFFF445AFA06810F8038001F038FF8146BD
S3150000389CA068B4F80CA00635284401F055FF28445E
S315000038AC01308245FFF433AFA289A068294601F0A6
S315000038BC2DFF8246A068284401F046FF01300544DE
S315000038CCA06810FA85F5CDE900A54B464246394667
S315000038DC304613F0ADFC2BE7832019E7002017E7E1
S315000038ECC37B2DE9F74304461BB1832003B0BDE827
S315000038FCF083C37C412B33D0422B42D0402B2DD1AD
S3150000390C037D828903F110018A424BD39DB28068F4
S3150000391C05F10801C61801F0F2FE05F10A03074687
S3150000392CA068A28910F8038005F10B0101F0E7FEEF
S3150000393C05F10D018146A289A06801F0E0FE0F3564
S3150000394CA3685B5D4246CDE9000339464B463046DB
S3150000395C13F086FC40BBE37B002BC6D18120C5E768
S3150000396C057D8289EB1C9A421CD3AAB28068961CF0
S3150000397C511CD31C0344825D415C405D13F076FC04
S3150000398CE8E7057D8289EB1C9A420BD3AAB28068C4
S3150000399C961C511CD31C0344825D415C405D13F0A4
S315000039AC83FCD7E78020A1E700209FE738B5C37BCF
S315000039BC002B437D14BF8325C325012B044639D127
S315000039CC0368028A59885879FEF744FC90B3236839
S315000039DC5B88062B0DD006D8042B1AD01ED8032BC9
S315000039EC12D0284638BDB3F5407F02D005D8082B37
S315000039FCF7D1E37BBBB18325F3E7B3F5805F14D036
S31500003A0C4FF610429342F3E72046BDE83840FFF7E5
S31500003A1C77BD2046BDE83840FFF7B0BD2046BDE86F
S31500003A2C3840FFF716BE8125DBE72046BDE8384057
S31500003A3CFFF756BF637D002BD3D12368228A5988A2
S31500003A4C5879FEF7FEFB0028CBD023685B88032B46
S31500003A5C0AD006D8002BC4D12046BDE83840FFF763
S31500003A6C3DBD192BCCD1C4E72046BDE83840FFF745
S31500003A7C63BD7047012070470120704701207047D5
S31500003A8C7047B5207047704770470020704700207C
S31500003A9C70470020704700207047002070470020B8
S31500003AAC70470020704700207047012070470120A6
S31500003ABC7047002070470020704700207047002098
S31500003ACC704700207047704700207047842070476D
S31500003ADC70477047704770470120704770477047B2
S31500003AEC70470120704700207047704770470020D0
S31500003AFC70476FF02F00704700207047034B1B6810
S31500003B0C1878012808BF0220704700BF4C240020FB
S31500003B1C704703207047704770477047704770476F
S31500003B2C0020704700207047002070470020704727
S31500003B3C0020704700207047002070470020704717
S31500003B4C7047B520704700207047002070477047BB
S31500003B5C70477047002070477047012205211046B8
S31500003B6C04F0DABE04220521012004F0D5BE03229E
S31500003B7C0521012004F0D0BE02220521012004F00B
S31500003B8CCBBE05221146012004F0C6BE0622052135
S31500003B9C012004F0C1BE41220521012004F0BCBE67
S31500003BAC40220521012004F0B7BE42220521012046
S31500003BBC04F0B2BE00220521012004F0ADBE0222A3
S31500003BCC0621012004F0A8BE42220621012004F0A1
S31500003BDCA3BE41220621012004F09EBE012206212D
S31500003BEC104604F099BE40220621012004F094BE32
S31500003BFC00220621012004F08FBE03220821012099
S31500003C0C04F08ABE02220821012004F085BE072298
S31500003C1C0821012004F080BE06220821012004F0B0
S31500003C2C7BBE04220821012004F076BE0522082161
S31500003C3C012004F071BE00220821012004F06CBEA4
S31500003C4C01220821104604F067BE40220321012000
S31500003C5C04F062BE01220321104604F05DBE002270
S31500003C6C0321012004F058BE02220321012004F096
S31500003C7C53BE01220421104604F04EBE0422114606
S31500003C8C012004F049BE03220421012004F044BEA5
S31500003C9C05220421012004F03FBE0022042101204C
S31500003CAC04F03ABE47224FF44071012004F034BEB2
S31500003CBC05224FF44071012004F02EBE02224FF46F
S31500003CCC4071012004F028BE4C224FF440710120B3
S31500003CDC04F022BE09224FF44071012004F01CBEF0
S31500003CEC03224FF44071012004F016BE06224FF455
S31500003CFC4071012004F010BE00224FF440710120E7
S31500003D0C04F00ABE0A224FF44071012004F004BEEE
S31500003D1C07224FF44071012004F0FEBD04224FF43B
S31500003D2C4071012004F0F8BD01224FF44071104699
S31500003D3C04F0F2BD4B224FF44071012004F0ECBDAF
S31500003D4C08224FF44071012004F0E6BD44224FF4E2
S31500003D5C4071012004F0E0BD42224FF44071012075
S31500003D6C04F0DABD43224FF44071012004F0D4BDB7
S31500003D7C40224FF44071012004F0CEBD41224FF495
S31500003D8C4071012004F0C8BD01220021092004F075
S31500003D9CC3BD000002292DE9F84F05468A4602D913
S31500003DAC63B1042908D85B49022002F051FE4FF09A
S31500003DBC000B5846BDE8F88F42F004020C9C2A70A2
S31500003DCC002B3ED06B701B0AAB70032704F064F912
S31500003DDC07F1020BE85501379DF82830EB554FF0EB
S31500003DEC00095FFA89F30B9AD65C002EE1D0732E8C
S31500003DFC50D8A6F14C01C9B2162904F1040827685B
S31500003E0C29D8454B23FA01F1C94311F001012CD1F4
S31500003E1C60684C2E04F1080884B214D14FF6FF7179
S31500003E2C20468C4214BF022100210BEB04020A44EB
S31500003E3C92455EDA621839493346022002F008FED2
S31500003E4CB5E70127C2E7532E0DD1C0B2B0F1FF0181
S31500003E5C18BF0121E9E76C2E07D1384601F079FC31
S31500003E6C023084B200210846DFE7732E04D13846AF
S31500003E7C01F06AFC0130F4E7A6F13004E2B2092A3B
S31500003E8C01D8A4B2EEE7A6F14102062A0AD8A6F199
S31500003E9C3704F6E7752E0BD0762E10D0782E10D070
S31500003EAC772E10D032461E49022002F0D1FD7EE755
S31500003EBC012104F10408206800242746B5E70221F5
S31500003ECCF7E70321F5E70421F3E70CF1010E013ABC
S31500003EDC05F80C00D2B2000A1FFA8EFC002AF4D1A7
S31500003EEC8B441FFA8BFB84B137B9334622460D49F6
S31500003EFCA3E7DC460A46F1E705EB0B0022463946FA
S31500003F0C01F0F2FAA3441FFA8BFB09F101094446AE
S31500003F1C67E700BFF7A203008100400035A303004A
S31500003F2C1CA3030068A3030010B5044C20600448CE
S31500003F3C018004490A60044A136010BDBC230020AA
S31500003F4CC0230020B8230020B423002070B586B00F
S31500003F5C0AAC0D4654F8046B0B490594098800937A
S31500003F6CCDE901641346024608480068FFF712FFC4
S31500003F7C074B1B681880074B1B684FF482525D80F9
S31500003F8CDA8006B070BD00BFC0230020BC23002021
S31500003F9CB8230020B423002008B430B586B009AB92
S31500003FAC0C4653F8045B0D49059309880092CDE93C
S31500003FBC015302460A4800230068FFF7EBFE094B43
S31500003FCC1B681880084B1B684FF482525C80DA80A1
S31500003FDC06B0BDE8304001B0704700BFC0230020DA
S31500003FECBC230020B8230020B423002007B5064BC1
S31500003FFC1B681A880091054B05491B680968FCF774
S3150000400C8DFE03B05DF804FBB8230020BC23002012
S3150000401CB42300200021FFF7E9BF000007B5074BCA
S3150000402C1B681B880192064A12680092054A1268A0
S3150000403CFCF7E2FE03B05DF804FB00BFB8230020DA
S3150000404CBC230020B42300200022FFF7E7BF0000AA
S3150000405C07B5064B1B681A880091054B05491B686A
S3150000406C0968FCF7AFFE03B05DF804FBB82300202B
S3150000407CBC230020B42300200021FFF7E9BF000079
S3150000408C1FB5094C24680394084C246824880294B0
S3150000409CBDF818400194064C246864880094FCF71B
S315000040ACDEFE04B010BD00BFBC230020B8230020E8
S315000040BCB4230020024B1B6818715971704700BF5E
S315000040CCB4230020F8B50D468C680A6826490646C6
S315000040DC202008F090FF6B687BB92449202008F05B
S315000040EC8AFF202011F0E0FA2149202008F098FFE1
S315000040FC2020BDE8F84011F0D7BA002EF1D01D4DA6
S3150000410C1D4E1E4F013C14F8013F23B918492020BF
S3150000411C08F086FFE5E7752B16D0762B16D0772B95
S3150000412C16D0732B16D0722B16D0712B16D0622B81
S3150000413C16D06E2B16D01249124A2A2B18BF1146CE
S3150000414C202008F058FFDEE72946F9E73146F7E765
S3150000415C3946F5E70C49F3E70C49F1E70C49EFE76B
S3150000416C0C49EDE70C49EBE77BDD03002AA40300C1
S3150000417CDBA30300E8A30300DCA30300F3A3030003
S3150000418C31A403002EA40300FFA3030009A403001B
S3150000419C14A403001FA4030029A40300F0B5214AAC
S315000041AC92F87B30184452FA80F01F4B90F865C099
S315000041BC90F866501F78A5EB0C050026EDB230463C
S315000041CCF4B2A54225D90CEB060313445B7811B166
S315000041DC0CB92D2B17D0782B1FD0582B05D108B125
S315000041EC37240AE0013C012C14D9602B17D8402B3C
S315000041FCF6D83A2B34BF302400241B1BDBB29F426B
S3150000420C03D900FB07300136DAE7052382F879304B
S3150000421C0020F0BD10270020F5E70028E2D0572437
S3150000422CEBE700BFC22300206C1B0020014B1B6870
S3150000423C18687047344F0020094A0023FF21137079
S3150000424C82F8783082F8653082F8773082F87930E7
S3150000425C82F87A1082F87B30024A1360704700BFEE
S3150000426CC2230020344F0020034B93F8770093F8B9
S3150000427C7B30C01AC0B27047C22300200021FFF762
S3150000428C8DBF000010B50A4B93F87B20024453FAFD
S3150000429C82F292F8652013445C78A4F12D035942FE
S315000042AC5941FFF77BFF2D2C08BF404210BD00BFC4
S315000042BCC223002030B50C4A92F87B300344C0432D
S315000042CCDBB2C00F39B1D51895F8664095F8655034
S315000042DC641B241A0C7042FA83F393F86530184465
S315000042EC024B184430BD00BFC2230020C32300205C
S315000042FCF7B50E460DF1070115461C46FFF7DAFF1A
S3150000430C9DF80730AB42074688BF8DF807501CB1A5
S3150000431C9DF807402C1BE4B222463046002101F0E2
S3150000432C3FF930199DF80720394601F0DDF89DF864
S3150000433C070003B0F0BD38B508220C460123FFF781
S3150000434CD7FF04F10803621E043413F8011D12F89A
S3150000435C015F1D70A3421170F7D138BD38B5014607
S3150000436C05460120FFF7AEFED5E901436CB91C46A4
S3150000437C084D236863B12946202008F03CFE2146EF
S3150000438C0020FFF79FFE0C34F3E71B786E2BEFD063
S3150000439C38BD00BFD8B2030008B50449202008F088
S315000043AC2AFE2020BDE8084011F07EB99CA303002C
S315000043BC38B5FFF7F1FF064D002461190C3463196B
S315000043CC53F80C3C03B938BD0020FFF77BFEF4E72D
S315000043DC808803002DE9F84F1F4B204D53F8202001
S315000043EC1F49202008F007FE2B681BB9BDE8F84FC3
S315000043FCFFF7DEBF1B4FDFF874A0FFF7CDFF0026DB
S3150000440CB94697F87B30F4B2013B9C4204DB286832
S3150000441CBDE8F84FFFF7A2BF47FA86F34C4493F872
S3150000442C65800023C84494F8662094F86510521AE7
S3150000443C03F1010BD2B2DBB2934205D30A49202019
S3150000444C08F0D9FD0136DCE7434451465A78202062
S3150000445C08F0D1FD5B46E6E7701B0020344F0020C8
S3150000446C97A30300C2230020D9B20300D2AC0300E9
S3150000447C2DE9F74F824C94F87730002B00F0A3808F
S3150000448C804B1B7813F0010F04F101071FD0002598
S3150000449C7D4E14E06319202093F8662093F865305E
S315000044ACD21A44FA85F3D2B293F86510394411F056
S315000044BCF6F83146202008F09EFD0135EDB294F851
S315000044CC7730AB42E6D87149202008F094FD94F879
S315000044DC77300193DFF8C0E16D4B002671461EF86C
S315000044EC012B91F801C04FF00008ACEB020C07EB66
S315000044FC020A5FFA8CFC45461868002853D001382E
S3150000450CD14619E02AB9002D4BD04FF001080C33D7
S3150000451CF2E719F8011BA1F1410BBBF1190F98BF7A
S3150000452C2031A2F1410B98BFC9B2BBF1190F9CBF48
S3150000453C2032D2B28A42EAD1A9EB0A01614510F8BF
S3150000454C012FDFD1002ADED11D46524B1D6094F897
S3150000455C7B30013384F87B30D5E901230136F6B282
S3150000456C002A36D01B786E2B32D03F2B24D04FF03E
S3150000457C00094F464FF0070A4FF0040B5FFA89F01B
S3150000458C811994F877C0AA68C9B28C45D35D28D82E
S3150000459C93B117447B782A2B1CBF032384F87930FC
S315000045AC0AE01D46B3E7B8F1000F01D1002DCCD1BE
S315000045BC022384F87930002594F8790000285CD120
S315000045CC686800F02FF903B0BDE8F04FFFF734BE72
S315000045DC1346019AB24281D8032284F879201D46EB
S315000045ECEAE7732B08D8712B0AD2002B43D0622B27
S315000045FC30D084F879A016E0A3F17502022AF8D817
S3150000460C752B1ED0762B1FD0732B20D0722B47F612
S3150000461CFF7818BF4FF0FF380121FFF7BFFD40456B
S3150000462C01D984F879B0AB683B4409F101095B7890
S3150000463C2A2B94F879301CBF0137FFB2002B9DD082
S3150000464CBAE74FF0FF08E7E74FF6FF78E4E74FF0DD
S3150000465C7F08E1E794F87B30184454FA80F090F820
S3150000466C653023445B78222BDDD07B2BDBD00523F6
S3150000467C84F87930D7E70323FAE7FFF7ABFEA2E716
S3150000468CC22300203E240020D9B20300D9A3030084
S3150000469C80880300344F0020272400202DE9F341A5
S315000046AC5E4C5F4F06460D464FF0000866B90DF19D
S315000046BC0701284610F0ECFF78B1262800F0A980F7
S315000046CC012384F879304BE0002D00F0A28016F817
S315000046DC013B8DF80730013DEDB23A789DF8073075
S315000046EC3B700D2A01D10A2BE0D00D2B0CD0A3F177
S315000046FC0A025142514122788846042AD6D8DFE86C
S3150000470C02F0051D263C31000121F4E721B1FFF72B
S3150000471CAFFE4FF00108C9E7202B63D0222B07D13F
S3150000472C0223237094F87820642A5DD10623C8E707
S3150000473C7B2B01D10323F4E70123F2E709B9202BE4
S3150000474CF0D194F87730112B3FD10323B9E7222B04
S3150000475CF7D00029E6D0052384F879304FF001080C
S3150000476C04232370B8F1000FA0D094F8790008B197
S3150000477CFFF730FEFFF760FD98E77D2B94F87A0083
S3150000478C03D1FF28DDD005239BE7602B13D8402BE4
S3150000479C13D8392B8CBF002230229A1AD2B20F2A88
S315000047AC10D8FF280BD002EB0012FF238DF8072040
S315000047BC84F87A30B6E75722EFE73722EDE784F82C
S315000047CC7A2073E7202BDED170E70133DBB284F855
S315000047DC7730234494F8782083F8652000232370DF
S315000047EC002994D1884661E72378012B09D19DF8DD
S315000047FC0730A3F1410119299CBF2033DBB28DF898
S3150000480C0730A3189DF807105970013284F87820E8
S3150000481C4CE7404602B0BDE8F08100BFC223002041
S3150000482C3F24002010B5054B0446187800F0A6FF6F
S3150000483CA047BDE8104000F0A8BF00BF60280020CC
S3150000484C7FB501A8FCF73EFE01AA0349042002F03D
S3150000485CFFF807B05DF804FB09A703002DE9F04F3C
S3150000486C18228DB0FF230DEB020000218DF80A30C3
S3150000487C30F0AFFA0DF10B014FF0FF30FFF71AFDD8
S3150000488CFFF7DEFF41F202029D49042002F0E0F838
S3150000489C04A8FDF72BF906A90DF10A00FDF72CF972
S315000048AC0420984902F0F0F8042002F0BDF810B18B
S315000048BC04A802F035F89DF922309DF82320924980
S315000048CC042002F0C5F822F0E9FB831EDBB2FC2BB8
S315000048DC05462AD88D498E4E8E4FDFF8A4820420C9
S315000048EC02F0B6F8012422463146042002F0CCF838
S315000048FC03A9E0B222F07CFB9128024600F09580D9
S3150000490C932800F09280002840F094809DF90C10BA
S3150000491C00919DF80E309DF80D207F49042002F081
S3150000492C97F80134E3B2AB42DDD3BDF82040FCF777
S3150000493CEFFE224603467949042002F0A5F804202E
S3150000494C774902F0A1F8042002F06EF810B106A81F
S3150000495C01F0E6FF7349042002F07AF827F078FD9F
S3150000496C044627F06FFD224603466F49042002F0E9
S3150000497C6FF8FDF7E1F86D49042002F085F89DF813
S3150000498C0A20FF2A5BD06A49042002F07DF86549AB
S3150000499CDFF8F081042002F05BF8FDF7B9F8654A00
S315000049AC65490346042002F053F822F0E9FA6349FC
S315000049BC0246042002F068F8FDF7B6F80446FDF747
S315000049CCB9F8224603465E49042002F041F8FDF789
S315000049DC4BFA5C490246042002F03AF80025FDF732
S315000049EC43FAECB2A0422FD801225749574C042067
S315000049FC02F02EF8002000F0C1FE554B554900225E
S31500004A0C042002F025F8236853B11A785249042081
S31500004A1C02F01EF8236851495A78042002F018F85F
S31500004A2C00F0B3FE0DB0BDE8F08F3946042002F05D
S31500004A3C0FF876E74146042002F00AF871E7484978
S31500004A4C042002F021F8A2E7464B474F03EB04166D
S31500004A5C2046D6F80890FDF779FC82462046FDF7ED
S31500004A6C09FA002814BFC346BB462046FDF76EFC68
S31500004A7C03F028FA002814BF404638465B460090DF
S31500004A8C52463A49DFF800B1042001F0FDFFB17936
S31500004A9C7388327B0191B18800910420344901F06E
S31500004AACD7FF002699F80430F4B2A34201D8013599
S31500004ABC95E7D9F800702F482F4914235C4307EB70
S31500004ACC040A3B5B9AF90C2011EA220138BF014615
S31500004ADC0A460420594601F0D7FF042001F0A4FF32
S31500004AEC38B150463C5BFDF7E3F90146204603F02E
S31500004AFC5DFA2249042001F0ABFF0136D2E700BF74
S31500004B0CCCA40300E7A4030013A50300EEA4030042
S31500004B1C04A5030028A503000BA5030033A5030079
S31500004B2C51A50300858003005AA503007BA503004D
S31500004B3C83E0030007E203008EA503009CA5030097
S31500004B4CB0A50300BFA5030033A603004C24002028
S31500004B5C3FA603004DA6030059A603006BA603004F
S31500004B6C86A50300F04E0020ABA40300CAA50300E3
S31500004B7CEAA50300C0A40300B4A40300DBA303004E
S31500004B8CDFBA0300A3A403001CA6030008B500208B
S31500004B9CFFF774FBBDE8084080B201F0C3BF08B54F
S31500004BAC0020FFF76BFBBDE8084080B201F0CEBFDA
S31500004BBC70B5074D074E00240C34631953F80C2CB2
S31500004BCC02B970BD3146042001F042FFF4E700BF84
S31500004BDC808803007BDD030007F0C2BE08B5002009
S31500004BECFFF74CFB054B1A7810F0FF0F14BF42F081
S31500004BFC010222F001021A7008BD00BF3E240020FB
S31500004C0C2DE9F8431BF08EFA104EDFF84C80DFF8D6
S31500004C1C4C9007460025EBB256F833400CB9BDE86C
S31500004C2CF88358F823204946012001F02DFF2378FC
S31500004C3C2BB90749012001F00BFF0135EBE7626840
S31500004C4C0449D21B012001F003FFF6E7FC7A0300AE
S31500004C5CFAA6030003A70300D01A0020F3A603004C
S31500004C6C10B52BF051FB0D490446012001F00CFF49
S31500004C7C022C0DD0032C0DD0012C0DD1084901208E
S31500004C8C01F002FF07490120BDE8104001F0E0BE2B
S31500004C9C0549F4E70549F2E70549F0E784A6030060
S31500004CACA1A603000DDF0300A7A60300B6A603000A
S31500004CBCC6A603002DE9F843114EDFF854800025F3
S31500004CCCFDF7D2F8ECB2A04201D8BDE8F883270173
S31500004CDC204616F80790FDF7CDF80A4B0A4900282E
S31500004CEC18BF43464A46012001F0CEFEF05DFCF7A4
S31500004CFC80FF0649012001F0ABFE0135E0E700BF5D
S31500004D0CF04E0020D0A90300E8A60300DBA30300A5
S31500004D1CC6A9030008B50020FFF7B0FA094B1B68BB
S31500004D2C1B681978A1F1650359425941C0B2FDF7C8
S31500004D3CE7FC28B904490120BDE8084001F088BE0B
S31500004D4C08BD00BF344F0020CEA6030049BA89B275
S31500004D5C4840C0F303114140080380B24840C3B237
S31500004D6C80EA431070470000014B1878704700BF6B
S31500004D7C40240020014B1870704700BF40240020CF
S31500004D8C1EF036BB38B5A0F1430305460A2B31D8C5
S31500004D9CDFE803F0060A0A12123030303030110008
S31500004DACBDE838401AF0AABD1AF074FD20B11AF00D
S31500004DBCA5FD0028FBD138BD114C20780028FAD16E
S31500004DCC0123443D237011F0E7F8032D0DD8DFE8DD
S31500004DDC05F00606090240F601001BF073F90023E4
S31500004DEC2370E8E740F60200F7E77A21054806F05B
S31500004DFCB5FEF4E78C210348BDE8384006F0AEBE9C
S31500004E0C4124002018A7030070477047704770476D
S31500004E1C704770477047704770477047704700205F
S31500004E2C70477047704700207047704700207047E6
S31500004E3C70470120704701207047704770477047D4
S31500004E4C70477047704700002DE9F04F24220C463E
S31500004E5C89B0002105462FF0BCFF2046FEF726FB45
S31500004E6C0446002800F0E0807549FEF734FB002864
S31500004E7C00F0A48072492046FEF72DFBD0E908010C
S31500004E8C2FF06EFDC3B200936E492046FEF723FB4E
S31500004E9C002800F095806B492046FEF71CFBD0E9F4
S31500004EAC08012FF05DFDC3B2019367492046FEF75A
S31500004EBC12FB30B164492046FEF70DFB006930F059
S31500004ECC83F8029061492046FEF705FB30B15F4935
S31500004EDC2046FEF700FB006930F076F807465C4981
S31500004EEC2046FEF7F8FA30B159492046FEF7F3FA98
S31500004EFC006930F069F8064656492046FEF7EBFA8B
S31500004F0C30B154492046FEF7E6FA006930F05CF8F9
S31500004F1C039051492046FEF7DEFA002852D04E493E
S31500004F2C2046FEF7D8FAD0E908012FF019FD5FFAF2
S31500004F3C80F84A492046FEF7CEFA30B1474920465A
S31500004F4CFEF7C9FA006930F03FF84549049020464F
S31500004F5CFEF7BEFA0590FEF7ADFA5FFA80FA5246F6
S31500004F6C4049012001F074FD0598FEF7A3FA1823B9
S31500004F7C58432FF001FF002302468146534509F1A1
S31500004F8C180921D120460592FEF786F89DF80030C7
S31500004F9C2B709DF804306B70029B059AEE60C5E988
S31500004FAC0137039B2B61049B85F814802846AB6163
S31500004FBC85F81CA02A6209B0BDE8F08F009063E763
S31500004FCC019072E78046B4E7194605980792069356
S31500004FDCFEF778FA24498346FEF77AFA00692FF031
S31500004FECF3FF224949F8100C5846FEF771FAD0E93E
S31500004FFC08012FF0B5FC1E4909F80C0C5846FEF7B3
S3150000500C67FA00692FF0E0FF1A4949F8080C584670
S3150000501CFEF75EFAD0E908012FF0DAFC069B079A38
S3150000502C49E906010133A9E7024682460490804607
S3150000503C039006460746CDE901000090A2E700BFA3
S3150000504CEDB90300CB9B0300C3A80300C6A803005D
S3150000505CCAA80300CDA80300D1A80300919E0300A3
S3150000506CD4A80300D8A80300129B030090A0030049
S3150000507CCFA80300E39A0300F7B5054610220846AD
S3150000508C002130F077FE070EC0F3074684B2009479
S3150000509C33463A460449012001F0DAFC28462F80B3
S315000050AC6E806C6003B0F0BD92A803002DE9304C05
S315000050BC9DB06B4683E80300BDF800000199030A16
S315000050CC0206BDF802004FEA004B4FEA104C1BEBF0
S315000050DC02044CEB030514EB010A45F1000B524696
S315000050EC5B460E49012001F0B3FC52465B460C4967
S315000050FC03A82FF037FF03A82FF081FF2FF03CFEFB
S3150000510C03A904462FF058FF03AA0649012001F013
S3150000511C9FFC20461DB0BDE8308C00BF3BCA030087
S3150000512C8DA7030092A70300F7B505460C460A4661
S3150000513C01200F4901F08CFC002300220D490120AF
S3150000514C01F086FC10222046002130F0DDFE8FB2E5
S3150000515C060C84B2009433463A460749012001F006
S3150000516C77FC2846C5E90076AC6003B0F0BD00BFFD
S3150000517CECA8030001A903000CA903002DE9F049D2
S3150000518C9FB001AB83E80700DDF80880039C184F3D
S3150000519C201C4FF000054FEA084B4FEA184C45F51A
S315000051AC82711BEB00024CEB01030120114901F04B
S315000051BC4FFC002639464FF48272002305A82FF0C7
S315000051CCD1FE42463346394606A82FF0CBFE224680
S315000051DC2B46394607A82FF0C5FE0D208DF820600A
S315000051EC2FF0CAFD05A92FF0E7FE1FB0BDE8F08928
S315000051FC0EA80300F8A70300D0B510220C46002118
S3150000520C30F0B8FD611E0646C7173823C3F12000DF
S3150000521CA3F1200426FA03F207FA00F0024327FA58
S3150000522C04F4083B224313F1080F01F8012FEDD1CA
S3150000523CD0BD0000F0B50C4F9BB0451E002401AE4E
S3150000524C301915F8012F394602342FF08BFE102C2D
S3150000525CF6D101A82FF0D3FE2FF08EFD01A92FF069
S3150000526CABFE1BB0F0BD00BF19B30300D0B51022C6
S3150000527C0C46002130F07EFD611E0646C7178823BA
S3150000528CC3F12000A3F1200426FA03F207FA00F07A
S3150000529C024327FA04F4083B224313F1080F01F8E2
S315000052AC012FEDD1D0BDFFF7C5BF00002DE9F043AE
S315000052BC04469BB00F46002937D00A4601201C49EC
S315000052CCDFF87C9001F0C4FB4FF000084646791ECF
S315000052DCB14201ABA2680CBF1649494603EB080064
S315000052EC23692FF03FFEA0682FF089FE0546206942
S315000052FC2FF085FE103501364544B74205EB000804
S3150000530C04F11804E3DC01A82FF079FE2FF034FD2C
S3150000531C01A904462FF050FE22460749012001F050
S3150000532C97FB20461BB0BDE8F083044CF9E700BFA1
S3150000533CABA70300B6A70300DFA70300DBA303009C
S3150000534CCAA7030084B010B5ADF5067D88AC84E819
S3150000535C0F009DF83C129098FFF7A8FF18490446D9
S3150000536C0246012001F074FB8E9906919DF83412C9
S3150000537C9DF821329DF82022CDE904418C990391A8
S3150000538C8B9902918A9901918999009109A80D49E5
S3150000539C2FF0E8FD09A82FF032FE2FF0EDFC09A93D
S315000053AC04462FF009FE22460749012001F050FB66
S315000053BC20460DF5067DBDE8104004B0704700BFD1
S315000053CC14A8030022A803007CA8030084B02DE9CE
S315000053DCF04106AC84E80F00DDE90780DDE90976CB
S315000053EC0C9D0E9C08B12FF0CFFCB8F1000F02D02B
S315000053FC40462FF0C9FC17B138462FF0C5FC16B144
S3150000540C30462FF0C1FC15B128462FF0BDFC002507
S3150000541C9DF83430AB4203DCBDE8F04104B0704774
S3150000542CA06808B12FF0B0FC206908B12FF0ACFCD5
S3150000543C01351834ECE700002DE9F047204DDFF874
S3150000544CA090DFF8A0A000245FFA84F8404621F073
S3150000545C31FEFF2806460CD122461A49287807F059
S3150000546CDFFD2878013410F01FF9142CECD1BDE8BF
S3150000547CF087154B59F82420144947B213EA270331
S3150000548C38BF5346287807F0CBFD002FE9DA14B164
S3150000549CB8F1030F08D10E4B0E49287816F0010F00
S315000054AC18BF194607F0BCFD0A2CDAD10A4B0B497A
S315000054BC287816F0010F18BF194607F0B1FDD0E792
S315000054CC5D1B0020D9A90300DBA3030001AA03007E
S315000054DC9CA90300B2A90300C4A90300CEA903002A
S315000054EC48A9030030B103008842F0B54FEA920395
S315000054FC1AD89BB29E00871904460D46043704340D
S3150000550CBC4205F104053AD1C3EB8333314402EBBB
S3150000551C8303013E304411FA83F3994220D011F8EB
S3150000552C012B00F8012FF8E7541E20449BB22144AE
S3150000553CA0EB830604460D46043E043CB442A5F19A
S3150000554C04050ED16FF003045C43C3EB833302EB0B
S3150000555C830321449BB201342044CB1A994209D1CE
S3150000556CF0BD2F792771EF78E770AF78A7706F7859
S3150000557C6770E2E711F8012900F8012DEEE715F83E
S3150000558C04CC04F804CC15F803CC04F803CC15F8B9
S3150000559C02CC04F802CC15F801CC04F801CCAEE729
S315000055AC0244904200D1704700F8011BF9E710B590
S315000055BC013801390AB9104606E010F8014F11F806
S315000055CC013F9C4201D0E01A10BD013A92B2F1E7BC
S315000055DC0A4B10B500241C70FCF79AF8084B2146B0
S315000055EC1880FF220748FFF7DBFF074B07481C8094
S315000055FC21460C22BDE81040FFF7D2BFB52800208B
S3150000560C764F0020784F0020684F00206A4F00200C
S3150000561C07490B88FE2B9FBF064AD05401339BB219
S3150000562C9DBF0B8003F1FF3398180020704700BF15
S3150000563C684F0020784F002038B50546C0B2FFF7FA
S3150000564CE7FF0446280AFFF7E3FF14B1002808BF5A
